:020000040800F2
:1000000000000320D512000847140008551400080A
:100010005B14000861140008671400080000000069
:100020000000000000000000000000002513000890
:100030006D14000800000000251300087B14000860
:1000400025130008251300082513000825130008B0
:1000500025130008251300082513000825130008A0
:100060002513000825130008251300082513000890
:100070002513000825130008251300082513000880
:100080002513000825130008251300082513000870
:100090002513000825130008251300082513000860
:1000A0002513000825130008251300082513000850
:1000B0002513000825130008251300082513000840
:1000C0002513000825130008251300082513000830
:1000D000251300083519000825130008251300080A
:1000E0002513000825130008251300082513000810
:1000F0002513000825130008251300082513000800
:1001000025130008251300082513000825130008EF
:1001100025130008251300082513000825130008DF
:1001200025130008251300082513000825130008CF
:1001300025130008251300082513000825130008BF
:1001400025130008251300082513000825130008AF
:10015000251300082513000825130008251300089F
:10016000251300082513000825130008251300088F
:1001700025130008251300082513000800000000BF
:10018000251300082513000825130008251300086F
:10019000251300082513000825130008251300085F
:0C01A00025130008251300082513000893
:1001C00010B5054C237833B9044B13B10448AFF391
:1001D00000800123237010BDC8090020000000002A
:1001E0004077000808B5034B1BB103490348AFF340
:1001F000008008BD00000000CC0900204077000806
:1002000081F0004102E000BF83F0004330B54FEAC7
:1002100041044FEA430594EA050F08BF90EA020F34
:100220001FBF54EA000C55EA020C7FEA645C7FEAC7
:10023000655C00F0E2804FEA5454D4EB5555B8BFEA
:100240006D420CDD2C4480EA020281EA030382EA5B
:10025000000083EA010180EA020281EA0303362DED
:1002600088BF30BD11F0004F4FEA01314FF4801CC0
:100270004CEA113102D0404261EB410113F0004FD2
:100280004FEA03334CEA133302D0524263EB430389
:1002900094EA050F00F0A780A4F10104D5F1200E27
:1002A0000DDB02FA0EFC22FA05F2801841F1000182
:1002B00003FA0EF2801843FA05F359410EE0A5F156
:1002C00020050EF1200E012A03FA0EFC28BF4CF087
:1002D000020C43FA05F3C01851EBE37101F000453D
:1002E00007D54FF0000EDCF1000C7EEB00006EEB4A
:1002F0000101B1F5801F1BD3B1F5001F0CD34908D4
:100300005FEA30004FEA3C0C04F101044FEA44522A
:1003100012F5800F80F09A80BCF1004F08BF5FEAB1
:10032000500C50F1000041EB045141EA050130BD91
:100330005FEA4C0C404141EB0101013C28BFB1F5A3
:10034000801FE9D291F0000F04BF01460020B1FAEE
:1003500081F308BF2033A3F10B03B3F120020CDAC1
:100360000C3208DD02F1140CC2F10C0201FA0CF09F
:1003700021FA02F10CE002F11402D8BFC2F1200C04
:1003800001FA02F120FA0CFCDCBF41EA0C019040BA
:10039000E41AA2BF01EB0451294330BD6FEA040403
:1003A0001F3C1CDA0C340EDC04F11404C4F12002EE
:1003B00020FA04F001FA02F340EA030021FA04F300
:1003C00045EA030130BDC4F10C04C4F1200220FA57
:1003D00002F001FA04F340EA0300294630BD21FA95
:1003E00004F0294630BD94F0000F83F4801306BF5B
:1003F00081F480110134013D4EE77FEA645C18BF4F
:100400007FEA655C29D094EA050F08BF90EA020FE5
:1004100005D054EA000C04BF1946104630BD91EADD
:10042000030F1EBF0021002030BD5FEA545C05D1E0
:100430004000494128BF41F0004130BD14F580041F
:100440003CBF01F5801130BD01F0004545F0FE4193
:1004500041F470014FF0000030BD7FEA645C1ABFC8
:10046000194610467FEA655C1CBF0B46024650EAFF
:10047000013406BF52EA033591EA030F41F400212B
:1004800030BD00BF90F0000F04BF0021704730B5B1
:100490004FF4806404F132044FF000054FF0000186
:1004A00050E700BF90F0000F04BF0021704730B547
:1004B0004FF4806404F1320410F0004548BF40421C
:1004C0004FF000013EE700BF42004FEAE2014FEA71
:1004D00031014FEA02701FBF12F07F4393F07F4F4C
:1004E00081F06051704732F07F4208BF704793F04F
:1004F0007F4F04BF41F40021704730B54FF4607462
:1005000001F0004521F000411CE700BF50EA010264
:1005100008BF704730B54FF000050AE050EA01020D
:1005200008BF704730B511F0004502D5404261EB7D
:1005300041014FF4806404F132045FEA915C3FF4BE
:10054000D8AE4FF003025FEADC0C18BF03325FEA5B
:10055000DC0C18BF033202EBDC02C2F1200300FA0C
:1005600003FC20FA02F001FA03FE40EA0E0021FA31
:1005700002F11444BDE600BF0000000000000000CE
:1005800001F0FF01102A2BDB10F0070F08D010F844
:10059000013B013A8B422DD010F0070F42B3F6D148
:1005A000F0B441EA012141EA014122F007047FF061
:1005B00000070023F0E80256083C85EA010586EAB8
:1005C000010685FA47F5A3FA87F586FA47F6A5FAF4
:1005D00087F68EB9EED1F0BC01F0FF0102F0070200
:1005E00032B110F8013B013A83EA010313B1F8D1AB
:1005F0000020704701387047002D06BF354603388C
:10060000073815F0010F07D1013015F4807F02BFC4
:10061000013015F4C03F0130F0BC0138704700BF15
:10062000844641EA000313F003036DD1403A41D3FD
:1006300051F8043B40F8043B51F8043B40F8043BBC
:1006400051F8043B40F8043B51F8043B40F8043BAC
:1006500051F8043B40F8043B51F8043B40F8043B9C
:1006600051F8043B40F8043B51F8043B40F8043B8C
:1006700051F8043B40F8043B51F8043B40F8043B7C
:1006800051F8043B40F8043B51F8043B40F8043B6C
:1006900051F8043B40F8043B51F8043B40F8043B5C
:1006A00051F8043B40F8043B51F8043B40F8043B4C
:1006B000403ABDD2303211D351F8043B40F8043BEC
:1006C00051F8043B40F8043B51F8043B40F8043B2C
:1006D00051F8043B40F8043B103AEDD20C3205D3FC
:1006E00051F8043B40F8043B043AF9D2043208D0F4
:1006F000D2071CBF11F8013B00F8013B01D30B8866
:1007000003806046704700BF082A13D38B078DD043
:1007100010F003038AD0C3F10403D21ADB071CBF15
:1007200011F8013B00F8013B80D331F8023B20F87F
:10073000023B7BE7043AD9D3013A11F8013B00F8B8
:10074000013BF9D20B7803704B7843708B78837040
:10075000604670470000000000000000000000003C
:100760000000000000000000000000000000000089
:100770000000000000000000000000000000000079
:1007800090F800F06DE9024520F007016FF0000CD1
:1007900010F0070491F820F040F049804FF0000479
:1007A0006FF00700D1E9002391F840F000F1080054
:1007B00082FA4CF2A4FA8CF283FA4CF3A2FA8CF38C
:1007C0004BBBD1E9022382FA4CF200F10800A4FAF3
:1007D0008CF283FA4CF3A2FA8CF3E3B9D1E9042347
:1007E00082FA4CF200F10800A4FA8CF283FA4CF37E
:1007F000A2FA8CF37BB9D1E9062301F1200182FA38
:100800004CF200F10800A4FA8CF283FA4CF3A2FA3D
:100810008CF3002BC6D0002A04BF04301A4612BA4B
:10082000B2FA82F2FDE8024500EBD2007047D1E94E
:10083000002304F00305C4F100004FEAC50514F0DD
:10084000040F91F840F00CFA05F562EA05021CBFAE
:1008500063EA050362464FF00004A9E770B54FF064
:10086000FF0C4CF4E06C1CEA11541DBF1CEA13553C
:1008700094EA0C0F95EA0C0F00F0DEF82C4481EAA4
:10088000030621EA4C5123EA4C5350EA013518BFC4
:1008900052EA033541F4801143F4801338D0A0FBB1
:1008A00002CE4FF00005E1FB02E506F00042E0FB5E
:1008B00003E54FF00006E1FB03569CF0000F18BF64
:1008C0004EF0010EA4F1FF04B6F5007F64F540740C
:1008D00004D25FEA4E0E6D4146EB060642EAC6219F
:1008E00041EA55514FEAC52040EA5E504FEACE2E0C
:1008F000B4F1FD0C88BFBCF5E06F1ED8BEF1004F0F
:1009000008BF5FEA500E50F1000041EB045170BD8A
:1009100006F0004646EA010140EA020081EA0301CE
:10092000B4EB5C04C2BFD4EB0C0541EA045170BDCA
:1009300041F480114FF0000E013C00F3AB8014F144
:10094000360FDEBF002001F0004170BDC4F100048D
:10095000203C35DA0C341BDC04F11404C4F120050E
:1009600000FA05F320FA04F001FA05F240EA020069
:1009700001F0004221F0004110EBD37021FA04F69F
:1009800042EB06015EEA430E08BF20EAD37070BD59
:10099000C4F10C04C4F1200500FA04F320FA05F0B8
:1009A00001FA04F240EA020001F0004110EBD370BA
:1009B00041F100015EEA430E08BF20EAD37070BD2A
:1009C000C4F1200500FA05F24EEA020E20FA04F303
:1009D00001FA05F243EA020321FA04F001F00041B2
:1009E00021FA04F220EA020000EBD3705EEA430E23
:1009F00008BF20EAD37070BD94F0000F0FD101F052
:100A00000046400041EB010111F4801F08BF013C8A
:100A1000F7D041EA060195F0000F18BF704703F0C8
:100A20000046520043EB030313F4801F08BF013D4F
:100A3000F7D043EA0603704794EA0C0F0CEA13550B
:100A400018BF95EA0C0F0CD050EA410618BF52EAC5
:100A50004306D1D181EA030101F000414FF00000CB
:100A600070BD50EA410606BF1046194652EA4306D9
:100A700019D094EA0C0F02D150EA013613D195EA4D
:100A80000C0F05D152EA03361CBF104619460AD195
:100A900081EA030101F0004141F0FE4141F470019F
:100AA0004FF0000070BD41F0FE4141F4780170BD8F
:100AB00070B54FF0FF0C4CF4E06C1CEA11541DBFF4
:100AC0001CEA135594EA0C0F95EA0C0F00F0A7F8F6
:100AD000A4EB050481EA030E52EA03354FEA013123
:100AE00000F088804FEA03334FF0805545EA131336
:100AF00043EA12634FEA022245EA111545EA1065FE
:100B00004FEA00260EF000419D4208BF964244F194
:100B1000FD0404F5407402D25B084FEA3202B61AB3
:100B200065EB03055B084FEA32024FF480104FF487
:100B3000002CB6EB020E75EB030E22BFB61A7546FB
:100B400040EA0C005B084FEA3202B6EB020E75EB8E
:100B5000030E22BFB61A754640EA5C005B084FEAF6
:100B60003202B6EB020E75EB030E22BFB61A7546C3
:100B700040EA9C005B084FEA3202B6EB020E75EBCE
:100B8000030E22BFB61A754640EADC0055EA060E8F
:100B900018D04FEA051545EA16754FEA06164FEAD2
:100BA000C30343EA52734FEAC2025FEA1C1CC0D17E
:100BB00011F4801F0BD141EA00014FF000004FF00B
:100BC000004CB6E711F4801F04BF01430020B4F1CC
:100BD000FD0C88BFBCF5E06F3FF6AFAEB5EB030C84
:100BE00004BFB6EB020C5FEA500C50F1000041EB81
:100BF000045170BD0EF0004E4EEA113114EB5C044E
:100C0000C2BFD4EB0C0541EA045170BD41F4801120
:100C10004FF0000E013C90E645EA060E8DE60CEA28
:100C2000135594EA0C0F08BF95EA0C0F3FF43BAF45
:100C300094EA0C0F0AD150EA01347FF434AF95EAFC
:100C40000C0F7FF425AF104619462CE795EA0C0FE0
:100C500006D152EA03353FF4FDAE1046194622E7AD
:100C600050EA410618BF52EA43067FF4C5AE50EA87
:100C700041047FF40DAF52EA43057FF4EBAE12E777
:100C80004FF0FF3C06E000BF4FF0010C02E000BF58
:100C90004FF0010C4DF804CD4FEA410C7FEA6C5C3B
:100CA0004FEA430C18BF7FEA6C5C1BD001B050EADE
:100CB000410C0CBF52EA430C91EA030F02BF90EAC9
:100CC000020F0020704710F1000F91EA030F58BF88
:100CD000994208BF90422CBFD8176FEAE37040F0EA
:100CE000010070474FEA410C7FEA6C5C02D150EA88
:100CF000013C07D14FEA430C7FEA6C5CD6D152EA43
:100D0000033CD3D05DF8040B704700BF8446104607
:100D100062468C461946634600E000BF01B5FFF706
:100D2000B7FF002848BF10F1000F01BD4DF808EDD6
:100D3000FFF7F4FF0CBF012000205DF808FB00BFA7
:100D40004DF808EDFFF7EAFF34BF012000205DF801
:100D500008FB00BF4DF808EDFFF7E0FF94BF01204E
:100D600000205DF808FB00BF4DF808EDFFF7CEFF4F
:100D700094BF012000205DF808FB00BF4DF808ED8E
:100D8000FFF7C4FF34BF012000205DF808FB00BF5F
:100D90004FEA410C7FEA6C5C02D150EA013C0AD177
:100DA0004FEA430C7FEA6C5C02D152EA033C02D169
:100DB0004FF0000070474FF0010070474FEA4102CA
:100DC00012F5001215D211D56FF47873B3EB62529D
:100DD00012D94FEAC12343F0004343EA505311F0C4
:100DE000004F23FA02F018BF404270474FF0000056
:100DF000704750EA013005D111F0004008BF6FF094
:100E0000004070474FF00000704700BF53B94AB927
:100E1000002908BF00281CBF4FF0FF314FF0FF3002
:100E200000F06EB9ADF1080C6DE904CE00F006F8E3
:100E3000DDF804E0DDE9022304B070472DE9F04756
:100E4000089D04468C46002B40F083808A4217465A
:100E500047D9B2FA82F242B1C2F1200024FA00F07E
:100E60009140974040EA010C94404FEA1748230C08
:100E7000BCFBF8F61FFA87FE08FB16C143EA0143E4
:100E800006FB0EF1994209D9FB1806F1FF3080F0FC
:100E90001981994240F21681023E3B445B1AA4B28A
:100EA000B3FBF8F008FB103344EA034400FB0EFEEA
:100EB000A64509D93C1900F1FF3380F00581A6450C
:100EC00040F2028102383C4440EA0640A4EB0E04A2
:100ED00000261DB1D4400023C5E900433146BDE8DA
:100EE000F08702B9FFDEB2FA82F2002A50D1CB1BA2
:100EF0004FEA174E1FFA87F80126B3FBFEFC210CC0
:100F00000EFB1C3341EA034108FB0CF38B4207D96B
:100F100079180CF1FF3002D28B4200F2E98084464E
:100F2000C91AA3B2B1FBFEF00EFB101143EA014453
:100F300008FB00F8A04507D93C1900F1FF3302D2A5
:100F4000A04500F2D9801846A4EB080440EA0C4002
:100F5000BFE78B4209D9002D00F0B1800026C5E91A
:100F6000000130463146BDE8F087B3FA83F6002E23
:100F70004AD18B4202D3824200F2B880841A61EBDC
:100F8000030101208C46002DA8D0C5E9004CA5E73F
:100F9000C2F1200320FA03F6974001FA02F04FEA6B
:100FA000174ED9403043030CB1FBFEF61FFA87F809
:100FB0000EFB161143EA014306FB08F1994204FABD
:100FC00002F409D9FB1806F1FF3C80F08D809942AC
:100FD00040F28A80023E3B445B1A81B2B3FBFEF0D2
:100FE0000EFB103341EA034100FB08F38B4207D9A3
:100FF000791800F1FF3C73D28B4271D90238394421
:10100000CB1A40EA064678E7C6F1200C03FA06F44C
:1010100022FA0CF31C4320FA0CF701FA06F34FEA0C
:10102000144E21FA0CF11F433B0CB1FBFEF91FFAE1
:1010300084F80EFB191143EA014109FB08FA8A45BD
:1010400002FA06F200FA06F308D9611809F1FF3036
:1010500048D28A4546D9A9F102092144A1EB0A01E7
:10106000BFB2B1FBFEF00EFB101147EA014700FBD7
:1010700008F8B84507D9E71900F1FF312ED2B84575
:101080002CD90238274440EA0940A7EB0807A0FB07
:1010900002894F45C64649461AD317D05DB1B3EB16
:1010A0000E0267EB010707FA0CFCF2404CEA020261
:1010B000F740C5E9002700263146BDE8F0872E46F7
:1010C00028460BE70646E9E61846FDE64345E5D225
:1010D000B8EB020E69EB04010138DFE70846D2E7FE
:1010E00060468DE78146B9E7664675E730464AE7D0
:1010F000ACF1020C394413E702383C4424E700BF4A
:10110000704700BF70B50D4E0D4D761BB61006D062
:10111000002455F8043B01349847A642F9D1094E02
:10112000094D761B06F00CFBB61006D0002455F8CE
:10113000043B01349847A642F9D170BD087A0008F3
:10114000087A0008107A0008087A0008F0B48607C8
:1011500046D0541E002A3CD0CAB2034601E0013CEE
:1011600037D303F8012B9D07F9D1032C2AD9CDB22F
:1011700045EA05250F2C45EA054534D9A4F11002AE
:1011800022F00F0C03F120071609674403F1100247
:1011900042E9045542E902551032BA42F8D1721CB4
:1011A00014F00C0F03EB021204F00F0613D0331FE0
:1011B00023F003030433134442F8045B9342FBD14E
:1011C00006F003042CB1CAB21C4403F8012B9C4264
:1011D000FBD1F0BC704734461346002CF3D1F8E73E
:1011E00014460346C1E71A462646E0E7024B13B110
:1011F000024800F005B87047000000000D1200081A
:10120000002301461A46184600F01EB838B5084BB0
:10121000084D5B1B9C1007D0043B1D44013C55F856
:1012200004399847002CF9D1BDE8384006F08EBA51
:10123000147A0008107A0008704700BF704700BF9A
:10124000704700BF704700BF2DE9F047DFF880A06E
:101250000646DAF8000098460F469146FFF7F0FF81
:101260001A4B1B68D3F8484124B365681F2D26DC50
:101270005EB9AB1C0135DAF80000656044F82370F4
:10128000FFF7E0FF0020BDE8F08704EB85030121B4
:10129000C3F88890D4F88821A9400A43022EC4F8E4
:1012A0008821C3F80881E4D1D4F88C311943C4F8FB
:1012B0008C11DEE703F5A674C3F84841D5E7DAF8E8
:1012C0000000FFF7BFFF4FF0FF30DCE76877000852
:1012D00030040020DFF834D0002103E00C4B5B58D1
:1012E000435004310B480C4B42189A42F6D30B4A38
:1012F00002E0002342F8043B094B9A42F9D300F084
:1013000051FBFFF7FFFE00F00FF8704700000320CD
:10131000147A000800000020C8090020C809002035
:10132000FC0B0020FEE7000080B500AF00F086F95E
:1013300000F056F800F0BCF91D4B0022A3F8642021
:101340001C4B00221A601C4BD3ED007A9FED1B7AD8
:1013500077EE877A184BC3ED007A174B1B68184657
:10136000FFF7B2F802460B46154801F0FDFA4FF4BC
:10137000FA7000F04BF90F4B01221A600E4BD3EDBF
:10138000007A9FED0E7A77EE877A0B4BC3ED007AE9
:10139000094B1B681846FFF797F802460B460848AA
:1013A00001F0E2FA4FF4FA7000F030F9C8E700BF3C
:1013B0008C0B002084024442E4090020AE47813FA8
:1013C0005877000880B485B000AF78607B68B3F8C8
:1013D0006430FB7300BF1437BD465DF8047B704773
:1013E00080B586B000AF00233B60104B1B6B0F4AEB
:1013F00043F4807313630D4B1B6B03F480733B60EA
:101400003B6802237B600123BB600023FB60032356
:101410003B613B1D1946064800F046FC054B012286
:101420001A6000BF1837BD4680BD00BF00380240BB
:10143000002002408402444280B400AF00BFBD4699
:101440005DF8047B704780B400AF00BFBD465DF817
:10145000047B704780B400AFFEE780B400AFFEE7C6
:1014600080B400AFFEE780B400AFFEE780B400AF09
:1014700000BFBD465DF8047B704780B500AF00F04B
:1014800093FB00BF80BD000080B598B000AFF8604E
:10149000B9607A603B60002387F85F3000237B618E
:1014A000304B1B6C2F4A43F0805313642D4B1B6C45
:1014B00003F080537B617B6900233B612A4B1B68EF
:1014C000294A43F440431360274B1B6803F440430D
:1014D0003B613B690123FB624FF480333B63022392
:1014E0007B644FF48003BB64BB68FB64FB683B65B3
:1014F0007B687B653B68BB6507F12C03184600F0F1
:1015000013FD034687F85F3097F85F30002B00D05B
:10151000FEE700F0BDFC034687F85F3097F85F30C8
:10152000002B00D0FEE70F23BB610223FB610023E9
:101530003B624FF4A0537B624FF48053BB6207F1D0
:1015400018030521184600F0BFFE034687F85F30F8
:1015500097F85F30002B00D0FEE700BF6037BD4634
:1015600080BD00BF003802400070004080B582B0EE
:1015700000AF0346FB71042000F08AFBFB79034AAD
:10158000136000BF0837BD4680BD00BFE8090020DA
:1015900080B489B000AF78600023BB61194B5B68F1
:1015A0007B61194B1A687B6802FB03F33B61154BA7
:1015B0009B68FB61134B9B68FB60FA68FB699A426E
:1015C000F8D0FA68FB699A4206D2FA69FB68D31A26
:1015D000BA691344BB6107E07A69FB68D21AFB69F8
:1015E0001344BA691344BB61FB68FB61BA693B6988
:1015F0009A4200D2DEE700BF00BF2437BD465DF847
:10160000047B704710E000E0E809002080B584B05A
:1016100000AF0346FB800023FB6006E04FF47A70C6
:10162000FFF7B6FFFB680133FB60FB88FA689A425C
:10163000F4D300BF00BF1037BD4680BD80B500AFFA
:1016400000F098FA052000F0BDFA082302221921C3
:101650004FF4B470FFF718FFB420FFF787FF00BF07
:1016600080BD80B485B000AF78607B681A697B6804
:10167000DB689A4202D14FF0FF3313E07B681B68AE
:101680007A68126913441B78FB607B681B6901331D
:101690007A68526893FBF2F102FB01F29A1A7B68B6
:1016A0001A61FB6818461437BD465DF8047B704725
:1016B00080B500AF0F4B104A1A600E4B4FF4E13269
:1016C0005A600C4B00229A600A4B0022DA60094BE8
:1016D00000221A61074B00229A61064B0C225A61C4
:1016E000044800F0F7FF01220449024801F020F805
:1016F00000BF80BD4C0B002000100140480B0020B3
:1017000080B58AB000AF78607B681B681D4A934241
:1017100033D100233B611C4B1B6B1B4A43F002037C
:101720001363194B1B6B03F002033B613B690023FE
:10173000FB60154B5B6C144A43F010035364124B6F
:101740005B6C03F01003FB60FB68C0237B6102232A
:10175000BB610123FB6102233B6207237B6207F12C
:1017600014031946094800F09FFA252000F06EFA8C
:1017700001220021252000F037FA00BF2837BD469E
:1017800080BD00BF0010014000380240000402404C
:1017900080B483B000AF78607B68DAB2074B5A60E0
:1017A00000BF064B1B6803F08003002BF9D07B6859
:1017B00018460C37BD465DF8047B704700100140A9
:1017C00080B582B000AF00E000BF224B1A69214B08
:1017D000DB689A42F8D01F48FFF743FF0346FB71CE
:1017E00097F907307F2B1BD07F2B29DC1B2B0ED0CA
:1017F0001B2B25DC082B13D00D2B21D10A23FB71C9
:1018000097F907301846FFF7C3FF03461EE0202371
:10181000FB7197F907301846FFF7BAFF034615E04A
:1018200097F907301846FFF7B3FF2020FFF7B0FF06
:1018300097F907301846FFF7ABFF97F9073005E037
:1018400097F907301846FFF7A3FF034618460837F5
:10185000BD4680BD3404002080B483B000AF786002
:101860007B681B682F4A934256D12F4B1A782F4B17
:101870001A702F4BB3F864301BB2002B4CDB2C4B8F
:10188000B3F8643003F48043002B14D0274B1B784B
:101890000A2B04D0264B0022A3F864203CE0244B02
:1018A000B3F864306FEA43436FEA53439AB2204B74
:1018B000A3F8642030E01D4B1B780D2B09D11C4B85
:1018C000B3F8643043F480439AB2194BA3F8642010
:1018D00022E0174BB3F86430C3F30D03134A1178B9
:1018E000134AD154124BB3F8643001339AB2104BFF
:1018F000A3F864200E4BB3F86430C3F30D03632BDD
:101900000ADD0B4BB3F864306FEA43436FEA53438D
:101910009AB2074BA3F8642000BF0C37BD465DF8B0
:10192000047B704700100140480B0020490B002049
:101930008C0B002080B582B000AF174800F054FF38
:101940000023FB7102E0FB790133FB71124800F0C8
:10195000F3FF0346202BF6D10023FB7102E0FB7955
:101960000133FB7101220D490B4800F0E1FE0346F3
:10197000002BF4D10A4BB3F864301BB2002B06DA0B
:101980000748FFF71FFD064B0022A3F8642000BFA5
:101990000837BD4680BD00BF4C0B0020480B00201F
:1019A0008C0B002080B400AF164BD3F88830154A5A
:1019B00043F47003C2F88830134B1B68124A43F09B
:1019C00001031360104B00229A600F4B1B680E4AF4
:1019D00023F0847323F4803313600B4B0B4A5A605B
:1019E000094B1B68084A23F480231360064B00222E
:1019F000DA60044B4FF000629A6000BFBD465DF8AC
:101A0000047B704700ED00E00038024010300024F5
:101A100080B586B000AFF860B9607A6000237B6162
:101A20000AE0FFF7CDFE0146BB685A1CBA60CAB295
:101A30001A707B6901337B617A697B689A42F0DBBB
:101A40007B6818461837BD4680BD80B586B000AFAC
:101A5000F860B9607A6000237B6109E0BB685A1CBA
:101A6000BA601B781846FFF793FE7B6901337B61F0
:101A70007A697B689A42F1DB7B6818461837BD4665
:101A800080BD000080B485B000AF7860114B1B684A
:101A9000002B02D10F4B104A1A600E4B1B68FB60E3
:101AA0000C4B1A687B6813446A46934205D90B4B6A
:101AB0000C221A604FF0FF3306E0064B1A687B6871
:101AC0001344044A1360FB6818461437BD465DF89A
:101AD000047B7047EC0A0020000C0020F80B00206B
:101AE00080B483B000AF78604FF0FF3318460C37F6
:101AF000BD465DF8047B704780B483B000AF78606A
:101B000039603B684FF400525A60002318460C3786
:101B1000BD465DF8047B704780B483B000AF786049
:101B2000012318460C37BD465DF8047B704780B42E
:101B300085B000AFF860B9607A60002318461437AA
:101B4000BD465DF8047B704707B5094B01901868E6
:101B50004FF47A73B0FBF3F000F084F8019900229F
:101B60004FF0FF3000F040F8002003B05DF804FBB8
:101B70004804002008B50B4B1A6842F400721A6042
:101B80001A6842F480621A601A6842F480721A601D
:101B9000032000F017F80F20FFF7D6FFFFF74CFCEB
:101BA000002008BD003C0240024A13680133136064
:101BB000704700BFF40B0020014B1868704700BF4E
:101BC000F40B00200749CA6822F4E0620302120401
:101BD00003F4E063120C134343F0BF6343F4003398
:101BE000CB60704700ED00E0164B30B5DC68C4F305
:101BF0000224C4F10705231D042D28BF0425062B4C
:101C00004FF0FF338CBF033C002403FA05F521EAB3
:101C10000501A34022EA0302A140002841EA020391
:101C2000ACBF00F16040084A4FEA0313B8BF00F0B0
:101C30000F00DBB2AABF00F56140135480F80033F7
:101C400030BD00BF00ED00E014ED00E042090123CB
:101C500000F01F0003FA00F0014B43F82200704728
:101C600000E100E00138B0F1807F0AD2064B074A5C
:101C70005860F02182F823100020072298601A6033
:101C800070470120704700BF10E000E000ED00E069
:101C9000044B1A6804280CBF42F0040222F004022C
:101CA0001A60704710E000E02DE9F04F744ADFF849
:101CB000D881DFF8D89185B000230C6801279F40B8
:101CC00007EA040537EA040440F0C1804C6824F0B8
:101CD000100ABAF1020F16D14FEAD30E00EB8E0EA6
:101CE00003F0070BDEF820604FEA8B0B4FF00F0C70
:101CF0000CFA0BFC26EA0C0C0E6906FA0BF646EA07
:101D00000C06CEF82060D0F800B04FEA430E4FF03A
:101D1000030C0CFA0EFC6FEA0C062BEA0C0B04F019
:101D2000030C0CFA0EFC0AF1FF3A4CEA0B0CBAF168
:101D3000010F0196C0F800C015D8D0F808C006EA17
:101D40000C0CCE6806FA0EFA4AEA0C0CC0F808C071
:101D5000D0F804C02CEA0707C4F3001C0CFA03FCFB
:101D60004CEA07074760C768019E37408E6806FA4D
:101D70000EF63E43C660E60069D54FF0000BCDF885
:101D80000CB0D8F844703F4E47F48047C8F8447010
:101D9000D8F8447007F480470397039F23F00307A4
:101DA00007F1804707F59C3703F0030ED7F808A02A
:101DB0004FEA8E0E4FF00F0C0CFA0EFCB0422AEADE
:101DC0000C0C4BD006F58066B04249D006F5806613
:101DD000B04247D006F58066B04245D006F5806631
:101DE000B04243D0484543D006F50066B04241D0EA
:101DF00006F58066B0423FD006F58066B0423DD021
:101E000006F58066B0420CBF09260A2606FA0EF6D1
:101E100046EA0C06BE601668EF4314F4803F0CBF20
:101E20003E402E431660566814F4003F0CBF3E40FF
:101E30002E435660966814F4801F0CBF3E402E431C
:101E40009660D668A40254BF3E402E43D66001334C
:101E5000102B7FF432AF05B0BDE8F08F5E46D5E7BA
:101E60000126D3E70226D1E70326CFE70426CDE7F4
:101E70000526CBE70626C9E70726C7E70826C5E7F4
:101E8000003C0140000002400038024000140240C3
:101E900037B500230193224B1A6C42F080521A642A
:101EA0001B6C03F080530193019B4FF4803393FA32
:101EB000A3F3B3FA83F303F1845303F560339B0078
:101EC00001221A60FFF778FE164D04466B68DA03AC
:101ED00015D54FF4003393FAA3F3B3FA83F303F168
:101EE000845303F560339B0001221A60FFF764FE00
:101EF0000C4D04466B689B030AD5002006E0FFF7F3
:101F00005BFE001BB0F57A7FE0D9032003B030BD43
:101F1000FFF752FE001BB0F57A7FEBD9F5E700BF63
:101F200000380240007000400368F7B50446D80747
:101F30003BD42368990700F1898023681E0700F1CC
:101F4000D48023685D072AD5002301938F4B904DE1
:101F50001A6C42F080521A641B6C03F08053019398
:101F6000019B2B6843F480732B60FFF725FE064628
:101F70002B68DA0540F1DB80A368844D012B40F02B
:101F8000DD802B6F43F001032B67FFF715FE7F4EBB
:101F9000054641F28837336F9B0740F1F080A26914
:101FA000002A40F0FB80002015E0784B9A6802F090
:101FB0000C02042A07D09A6802F00C02082A0CD1FD
:101FC0005A68520209D5714B1B689B03B1D56368EF
:101FD000002BAED1012003B0F0BD6268B2F5803FA6
:101FE00011D11A6842F480321A60FFF7E5FD674E9E
:101FF000054633689F039CD4FFF7DEFD401B642831
:10200000F7D90320E7E7614DB2F5A02F2B6807D180
:1020100043F480232B602B6843F480332B60E4E788
:1020200023F480332B602B6823F480232B60002A59
:10203000DBD1FFF7C1FD06462B6898037FF579AF2A
:10204000FFF7BAFD801B6428F6D9DAE74F4B9A6890
:1020500012F00C0F07D09A6802F00C02082A16D171
:102060005B68590213D4494B1A68920702D5E2689B
:10207000012AAFD11868F82292FAA2F2B2FA82F1DC
:1020800022698A4020F0F8010A431A6055E7E268A5
:10209000404BDAB101221A60FFF78EFD3B4D064638
:1020A0002B689B070CD52968F82393FAA3F3B3FA9E
:1020B00083F22369934021F0F80213432B603CE73D
:1020C000FFF77AFD801B0228EAD99AE71A60FFF72A
:1020D00073FD2E4E054633689F077FF52EAFFFF741
:1020E0006BFD401B0228F6D98BE762692A4B7AB157
:1020F00001221A60FFF760FD244E0546736F9807B2
:102100003FF51FAFFFF758FD401B0228F6D978E7CF
:102110001A60FFF751FD1D4E0546736F99077FF555
:1021200010AFFFF749FD401B0228F6D969E7FFF71A
:1021300043FD801B02287FF61BAF62E7052B04D10D
:102140002B6F43F004032B671BE72A6F22F0010279
:102150002A672A6F22F004022A67002B7FF415AF4A
:10216000FFF72AFD41F2883706462B6F98077FF567
:1021700016AFFFF721FD801BB842F6D941E7FFF704
:102180001BFD401BB8427FF606AF3AE7003802401D
:102190000070004000004742800E47422B4DAB6864
:1021A00003F00C03082B3FF415AF294E0023022A3D
:1021B00033603ED1FFF700FD07462B68990132D40A
:1021C00047F6C07797FAA7F74FF44032B7FA87F788
:1021D00092FAA2F24FF07061B2FA82F091FAA1F194
:1021E000D4E907321343626A02FA07F7A26A520877
:1021F000013A82403B431343E26AB1FA81F102FAA9
:1022000001F10B436B6001233360FFF7D5FC0F4DE9
:1022100004462B689A013FF5C6AEFFF7CDFC001BC4
:102220000228F6D9EDE6FFF7C7FCC01B0228C4D987
:10223000E7E6FFF7C1FC04462B689B017FF5B3AED0
:10224000FFF7BAFC001B0228F6D9DAE60038024094
:1022500060004742194A936803F00C03042B10B541
:1022600028D0082B28D15168536801F03F0113F49E
:10227000800F47F6C074536894FAA4F0B0FA80F067
:1022800003EA040323FA00F314BF0D480D48B0FB22
:10229000F1F05843094B4FF440325B6892FAA2F2D6
:1022A000B2FA82F203F44033D34001335B00B0FB57
:1022B000F3F010BD0248FCE70248FAE7003802409C
:1022C00040787D010024F400554B1A6802F00F029B
:1022D0008A422DE9F04105460E462FD32A6894071D
:1022E00036D4D0073CD44E4B1A6802F00F02B242EB
:1022F00000F286802A68510700F18A80130707D50B
:10230000484A2969936823F4604343EAC103936010
:10231000FFF7A0FF434BF0229B6892FAA2F2B2FAB9
:1023200082F203F0F003D3403F4AD35CD8403F4BE6
:1023300018600F20FFF708FC002007E0CAB21A70EF
:102340001B6803F00F038B42C8D00120BDE8F08169
:102350003449A8688B6823F0F00303438B60C0E71F
:102360006A68304B012A1DD11B6813F4003FECD082
:102370002C4CA36823F003031343A360FFF71CFC5A
:102380006B68012B074641F2883815D1A36803F02A
:102390000C03042BA7D0FFF70FFCC01B4045F5D959
:1023A0000320D3E7911E01291B6802D813F0007F98
:1023B000DDE713F0020FDAE7022B0AD1A36803F07E
:1023C0000C03082B8FD0FFF7F7FBC01B4045F5D956
:1023D000E6E7032B0FD1A36803F00C030C2B82D08C
:1023E000FFF7EAFBC01B4045F5D9D9E7FFF7E4FB4F
:1023F000C01B4045D4D8A36813F00C0FF6D172E788
:10240000F2B21A701B6803F00F03B3429DD171E75B
:102410000449E8688B6823F4E05303438B606DE75D
:10242000003C0240003802406C770008480400205D
:10243000084B4FF4E0529B6892FAA2F2B2FA82F291
:1024400003F4E053D340044AD35C044A1068D840F4
:10245000704700BF003802406C7700084804002035
:10246000084B4FF460429B6892FAA2F2B2FA82F2F1
:1024700003F46043D340044AD35C044A1068D84054
:10248000704700BF003802406C7700084804002005
:102490000368DA6822F49072DA605A6922F0010265
:1024A0005A61202380F83A30704700002DE9F84344
:1024B0000368C1681A69044622F440520A431A614B
:1024C0002569A268D968C0692A43656921F4164163
:1024D0002A4321F00C0102430A43DA605A69A169D8
:1024E00022F440720A43B0F5004F5A61774A79D11D
:1024F000934203D002F58062934243D1FFF7B0FFCD
:10250000636819254FF0640868435B00B0FBF3F380
:10251000B3FBF8F31F01FFF7A3FF636868435B0099
:10252000B0FBF3F6FFF79CFF636868435B00B0FB0A
:10253000F3F3B3FBF8F308FB1363DB003233B3FBB5
:10254000F8F35B0003F4F876FFF78AFF62686843EC
:102550005200B0FBF2F9FFF783FF6368226868431B
:102560005B00B0FBF3F3B3FBF8F308FB1393DB0062
:102570003233B3FBF8F303F007033B443344936077
:10258000BDE8F883FFF754FF636819254FF064082E
:1025900068435B00B0FBF3F3B3FBF8F31F01FFF7F5
:1025A00047FF636868435B00B0FBF3F6FFF740FF4B
:1025B000636868435B00B0FBF3F3B3FBF8F308FB1D
:1025C0001363DB003233B3FBF8F35B0003F4F876FC
:1025D000FFF72EFF626868435200B0FBF2F9FFF785
:1025E00027FFBAE7934202D0394A93423FD1FFF71F
:1025F00037FF636819254FF0640868439B00B0FB00
:10260000F3F3B3FBF8F31E01FFF72AFF6368684397
:102610009B00B0FBF3F7FFF723FF636868439B0061
:10262000B0FBF3F3B3FBF8F308FB13731B01323376
:10263000B3FBF8F303F0F007FFF712FF626868439B
:102640009200B0FBF2F9FFF70BFF63682268684362
:102650009B00B0FBF3F3B3FBF8F308FB13931B01F0
:102660003233B3FBF8F303F00F033B4386E7FFF786
:10267000DFFE636819254FF0640868439B00B0FBD8
:10268000F3F3B3FBF8F31E01FFF7D2FE6368684370
:102690009B00B0FBF3F7FFF7CBFE636868439B003A
:1026A000B0FBF3F3B3FBF8F308FB13731B013233F6
:1026B000B3FBF8F303F0F007FFF7BAFE6268684374
:1026C0009200B0FBF2F9FFF7B3FEBEE70010014045
:1026D0000014014010B5044640B390F8393003F0BF
:1026E000FF021BB980F83820FFF70AF8226824237C
:1026F00084F83930D36823F40053D3602046FFF7C1
:10270000D5FE23681A6922F490421A615A6922F0B0
:102710002A025A61DA6842F40052DA60002020236B
:10272000E06384F8393084F83A3010BD0120FCE7CA
:1027300090F83A30202B1CD1C9B1C2B190F8383092
:10274000012B16D0C285828500232222C36380F824
:102750003A20026880F838308162516941F0010105
:102760005161D16841F49071D160184670470120E1
:10277000704702207047704710B590F83A30222B0E
:102780002FD181680469836A0268B1F5805F1FD127
:102790005268CCB9C2F3080223F8022B8362C48DBD
:1027A000013CA4B2C4856CB90368DA6822F4907263
:1027B000DA605A6922F001025A61202380F83A3027
:1027C000FFF74AF800200DE0D2B223F8012BE5E72D
:1027D000591C526881620CB91A70E0E702F07F025E
:1027E000FAE7022010BD704703681A68D96870B50F
:1027F00016075D69044607D1960659D58D0657D54B
:10280000BDE87040FFF7B8BF05F0010001F4907516
:1028100005434DD0D60705D5CD0542BFE36B43F048
:102820000103E363530704D518B1E36B43F00203DC
:10283000E363960704D518B1E36B43F00403E36345
:10284000150704D518B1E36B43F00803E363E36BAA
:102850004BB3900604D5890602D52046FFF78CFFBE
:1028600023685B69E56B03F0400305F008051D4331
:10287000204619D0FFF70CFE23685A6952060FD57F
:102880005A69606B22F040025A6148B1254B0365DA
:1028900000F058F838B1606BBDE87040036D184720
:1028A0002046FFF7A0FF70BDFFF79DFFE563FAE745
:1028B000160628D50D0626D594F83920212AF2D1FE
:1028C000A168226AB1F5805F18D11188C1F30801AF
:1028D0005960216981B902322262E28C013A92B2D6
:1028E000E284002ADFD1DA6822F08002DA60DA6856
:1028F00042F04002DA60D6E70132EDE7511C216276
:1029000012785A60E9E75006CDD54A06CBD5DA6889
:1029100022F04002DA60202384F839302046FFF7A5
:102920002AFFC0E72929000808B5806B0023C3856A
:10293000C384FFF758FF08BD90F8392090F83A009B
:102940001043704790F83530022B03D08023436545
:10295000012070470268052380F83530136823F0A2
:1029600001031360002070470FB400B5074983B01E
:1029700004AB086853F8042B8168019300F008F851
:1029800003B05DF804EB04B0704700BF0000002006
:102990002DE9F04F2DED068BCFB01C468B46174628
:1029A000814603F035F90368089418461193FDF742
:1029B000E7FE1090B9F1000F04D0D9F83830002BA1
:1029C00000F00A82DBF86430BBF90C2013F0010F31
:1029D00093B202D1910540F1D5869E040AD4DBF86A
:1029E000641042F4005321F40051ABF80C30CBF8E2
:1029F00064109BB21D0740F1CA80DBF81020002A4A
:102A000000F0C58003F01A020A2A00F0CE800023ED
:102A10009FED837BCDE92333CDE91333CDE9153326
:102A20000C931293049325AB229398463B788DED3B
:102A30000E7B09EE10BA002B00F078813C4604E0D2
:102A400014F8013F002B00F0C980252BF8D1E51BBD
:102A500040F0C7802378002B00F0688100230593A5
:102A60008DF86B300293661C4FF0FF33647803934C
:102A70002B254FF0200A0136A4F120035A2B00F237
:102A8000D380DFE813F07802D100D1007202D100C8
:102A9000D100D1006A00D100D10010022102D10082
:102AA0001B025802D10052025B005B005B005B001E
:102AB0005B005B005B005B005B00D100D100D100DC
:102AC000D100D100D100D1005D01D100B30190024D
:102AD0005D015D015D01D100D100D100D1008A020C
:102AE000D100D100E902D100D100D100C101D10053
:102AF0002502D100D1002108D100D100D100D100A0
:102B0000D100D100D100D1005D01D100B301E701B6
:102B10005D015D015D01FE02E701AD01D1008102B1
:102B2000D1001B0317080703AD01D100C1018200CA
:102B30001308D100D100F207D1008200A4F13003C4
:102B4000002216F8014B02EB820203EB4202A4F1D1
:102B50003003092BF5D905928EE7484603F058F863
:102B6000436815931846FDF70BFE034648461C467E
:102B7000169303F04DF88268139234B1139B23B17E
:102B8000139B1B78002B41F0D980347873E75946AA
:102B9000484601F02FFD002841F07483BBF80C304B
:102BA00003F01A020A2A7FF432AFBBF90E20002A82
:102BB000FFF62DAFDBF86420D20702D49E0541F169
:102BC000918123463A465946484601F0D1FC04908B
:102BD00004984FB0BDEC068BBDE8F08FE51B00F00C
:102BE000A580DDE9233201332A44072BCDE92332C6
:102BF000C8F80070C8F8045006DC08F10808049A08
:102C000023782A44049226E719EE101A22AA48468D
:102C100003F084FF002841F04D840DF19408EEE7A5
:102C200000000000000000000996002C7ED0002368
:102C30001A464FF0010A8DF8D4408DF86B30079298
:102C400003920A920D920B92CDF818A035AF029B19
:102C5000029913F0020318BF0AF1020A11F0840B63
:102C600005D10599A1EB0A06002E00F3D483249D1B
:102C700072B1239A013201350DF16B000121072A4F
:102C8000CDE92325C8E9000100F3058408F108080F
:102C90006BB1239B013302351BA90222072BCDE91F
:102CA0002335C8E9001200F3068408F10808BBF1D7
:102CB000800F00F09682039B069A9E1A002E00F366
:102CC000D882029BDE0500F13082239B069AC8F869
:102CD000007001331544072B2495C8F80420239372
:102CE00000F32D8308F10808029B5C0705D5059BBE
:102CF000A3EB0A04002C00F3EC83DDE90432524517
:102D0000ACBF9B1853440493002D40F0EF82002386
:102D10002393079B1BB10799484602F051FE0DF122
:102D20009408099F3B78002B7FF488AE249B19EE12
:102D300010BA002B40F0F8870023239300F08FBCDB
:102D4000089B0996073323F00703B3EC027B8DED54
:102D50000E7BDDE90E56089326F000430AEE903A0A
:102D60000AEE105A5BEC1AABB84B504659464FF07E
:102D7000FF32FEF70DF8002840F05285B34B4FF0BC
:102D8000FF3250465946FDF7E5FF002840F04885E0
:102D90000022002328463146FDF7D2FF002841F0EB
:102DA0009A819DF86B20AA4FAA4B029800214FF000
:102DB000030A20F0800007910290472CC8BF1F46ED
:102DC000CDF818A003910A910D910B91002A3FF4C0
:102DD0003EAF0AF1010A3AE7484602F06BFDF1E521
:102DE000029B347843F02003029344E6089B099643
:102DF00053F8042B8DF8D42000210A464FF0010A25
:102E000008938DF86B101AE7089D099655F8047B16
:102E100000268DF86B60002F00F08486039A13461D
:102E2000013300F02E8731463846FDF7A9FB0790A5
:102E3000002801F0E281079B0396DA1B06923346D5
:102E400022EAE27A08959DF86B2007930A930D9386
:102E50000B93BBE7029B09969D0640F1AD80089B52
:102E6000073323F007031946F1E80223089192463D
:102E70009B46002A73F10003C0F2AF80039B01332D
:102E800000F0AD85029B23F080055AEA0B0340F069
:102E9000B182039B002B40F0B48202950023039380
:102EA00006934EAFC3E0089B53F8042B0592002A0B
:102EB00080F27184059A089352420592029B3478FD
:102EC00043F004030293D6E534788DF86B50D2E5D5
:102ED000029B099643F01005AF0640F12984089B38
:102EE000073323F00703F3E802AB08930123002222
:102EF0008DF86B20039A114601317DD025F08001B9
:102F000002915AEA0B0140F07182002A40F0868655
:102F1000002BC3D115F00103069300F06B8430231E
:102F20008DF837310DF2371781E0029B347843F08A
:102F3000800302939FE5324612F8014B2A2C01F0E0
:102F4000F182A4F13003092B164698BF002201F24A
:102F5000928116F8014B02EB820203EB4202A4F1CC
:102F60003003092BF5D9039286E5029B347843F0B0
:102F7000010302937FE59DF86B30002B7FF405AED3
:102F800034788DF86BA076E53478029B6C2C00F0D9
:102F9000C28543F0100302936DE5029B347843F041
:102FA0000803029367E5029B099643F0100302931E
:102FB000029B9D063FF553AF029BD80640F1F68475
:102FC000089B53F8042B08934FEAE27B5B46002AE8
:102FD00073F100039246BFF651AF039A029DDAF1F6
:102FE000000A11464FF02D036BEB4B0B01318DF8AE
:102FF0006B304FF0010381D1012B00F0FB81022BDC
:103000004EAF73D112984FEA1A130AF00F0143EA38
:103010000B734FEA1B129A469346435C07F8013D37
:103020005AEA0B03EFD14EABDB1B0295069300234C
:10303000039907930A930D930B93069B9DF86B20BE
:103040008B42B8BF0B469A46C0E600BFFFFFEF7F3A
:103050007C77000880770008029B099643F01003F4
:103060000293029B990640F17783089B073323F074
:103070000703F3E802AB0893029B23F48065002367
:1030800035E73478029B682C00F03E8543F040031E
:103090000293F0E4089B099647F6300153F8042B9D
:1030A000ADF86C1002990893CD4B129341F00205D4
:1030B00092464FF0000B0223782418E7029B0996F2
:1030C0009E0600F1A183029BDD0600F1AD85029B07
:1030D0005C0600F14986029B980540F1A585089B96
:1030E000049953F8042B089311701AE64FEADA0298
:1030F00042EA4B724FEADB010AF007038B46924625
:1031000030335AEA0B013A4607F8013DEED1E907A0
:1031100089D5302B87D03023023A07F8013C4EABDB
:103120009B1A02950693174681E7652C40F313819D
:10313000DDE90E0100220023FDF7F8FD002800F074
:103140000482239BA74AC8F80020013301350122DD
:10315000072BCDE92335C8F8042000F3418508F199
:1031600008081C9B0C9A934280F20783239B119AB8
:10317000C8F80020109AC8F8042001331544072B22
:103180002495239300F3B28408F108080C9B5C1E7D
:10319000002C7FF7A9AD102C239BDFF84CB240F335
:1031A00030855F46102619EE10BA05E008F10808D0
:1031B000103C102C40F3248501331035072BCDE94A
:1031C0002335C8E90076F1DD22AA5946484603F0C6
:1031D000A5FC002840F03E82DDE923350DF194087E
:1031E000E6E7059BA3EB0A06002E7FF764AD102EE1
:1031F000239ADFF8F4B129DD58462946A34619EE93
:10320000105A1023044604E0103E102E08F108085E
:1032100018DD01321031072ACDE92321C8E9004326
:10322000F2DD22AA2946484603F078FC002840F047
:103230001082103E102EDDE923210DF194084FF08D
:103240001003E6DC23460D465C469B4601323544BE
:10325000072ACDE92325C8F800B0C8F8046000F3B8
:103260003784039B069A9E1A002E08F108087FF700
:1032700028AD102E239ADFF870B129DD5846294673
:10328000A34619EE105A1023044604E0103E102EF7
:1032900008F1080818DD01321031072ACDE9232191
:1032A000C8E90043F2DD22AA2946484603F036FC6D
:1032B000002840F0CE81103E102EDDE923210DF1D3
:1032C00094084FF01003E6DC23460D465C469B460F
:1032D00001323544072ACDE92325C8F800B0C8F8E3
:1032E000046000F3178208F10808EAE419EE101AE6
:1032F00022AA484603F012FC00283FF408AD19EE5C
:1033000010BAA7E1239B1199C8F800101099C8F8CA
:10331000041001330D44072B2495239300F3D28529
:1033200008F10808002AC0F2C7870C9A0133154437
:10333000072BCDE92335C8E900727FF7D3AC19EE2E
:10334000101A22AA484603F0E9FB0028D7D1249D91
:103350000DF19408C8E40C9B239C012B40F392814F
:10336000013401350123072CCDE92345C8F800704D
:10337000C8F8043000F3F18308F10808109B119A93
:1033800001341D44072CCDE92345C8E9002300F38F
:10339000F28308F108080023DDE90E010022FDF7A1
:1033A000C5FC0C9B002840F08B81013B01340137A8
:1033B0001D44072CCDE92345C8F80070C8F8043037
:1033C00000F3708108F10808149A013415441EAB0B
:1033D000072CCDE92345C8E900327FF783ACAEE77F
:1033E0008C770008BC770008D0770008012B029D7D
:1033F0007FF405AEBBF1000F08BFBAF10A0F80F0F1
:10340000F6820AF1300A01238DF837A1029506935E
:103410000DF237170BE6102EDDE9232129DD179376
:10342000102543460846B846274619EE104A04E0E0
:10343000103E102E03F1080316DD0132C44910308E
:10344000072ACDE92320C3E90015F1DD22AA214690
:10345000484603F063FB002840F0B483103E102E72
:10346000DDE9232025ABE8DC3C4647469846179B20
:1034700001460132B648C8F800007518072ACDE9A0
:103480002325C8F8046000F38B839DF86B2008F1B6
:103490000808FFF7EDBB19EE101A22AA4846179349
:1034A00003F03CFB00287FF42AAF249D179B0DF10D
:1034B0009408FFF7EDBB19EE101A22AA484603F054
:1034C0002DFB00287FF41BAF249D0DF19408FFF71E
:1034D000EEBB102C239B20DD19EE107A102604E0A1
:1034E000103C102C08F1080817DD0133984A1035FC
:1034F000072BCDE92335C8E90026F1DD22AA39469C
:10350000484603F00BFB002840F07883103C102C59
:10351000DDE923350DF19408E7DC01338C4AC8F866
:1035200000202544072BCDE92335C8F804407FF758
:10353000E4AB19EE101A22AA484603F0EFFA00286D
:103540007FF4DDAE249DFFF7D8BB1C9A002A40F320
:103550002681DDE90B329342A8BF1346002B1C469F
:103560000DDD239BC8F8007001332544072B2495FB
:10357000C8F80440239300F3D98508F108080B9B91
:10358000002CA8BF1B1B002B1C4600F355830B9B74
:103590003B449B46029B590500F104851C9B0C9AF9
:1035A000934203DB029AD20740F1CF83239A119909
:1035B000C8F800101099C8F8041001320D44072A09
:1035C0002495239200F3E98508F108080C9ABC18A9
:1035D000A4EB0B04D31A9C42A8BF1C46002C0DDDA3
:1035E000239AC8F800B001322544072A2495C8F868
:1035F0000440239200F32E8608F10808002CACBF8B
:103600001C1B1C46002C7FF76FAB102C239BDFF894
:1036100044B140F3F6825F46102619EE10BA05E079
:1036200008F10808103C102C40F3EA8201331035F1
:10363000072BCDE92335C8E90076F1DD22AA5946EA
:10364000484603F06BFA28B9DDE923350DF19408FB
:10365000E8E7AB46079911B1484602F0B1F9DBF84B
:10366000643013F0010FBBF80C3002D1980540F123
:103670009082590600F1128604984FB0BDEC068B7B
:10368000BDE8F08F029BDE073FF56AAE01340135DD
:103690000123072CCDE92345C8F80070C8F8043091
:1036A0007FF790AE19EE101A22AA484603F036FAB8
:1036B00000287FF424AEDDE923450DF1940883E66C
:1036C0005E1E002E7FF780AE102EDFF888B040F32C
:1036D000E382CDF80CA0102719EE10AA05E008F13E
:1036E0000808103E102E40F3D58201341035072C07
:1036F000CDE92345C8E900B7F1DD22AA5146484685
:1037000003F00CFA002840F0BA85DDE923450DF1FD
:103710009408E6E719EE101A22AA484603F0FEF9CB
:1037200000287FF4ECAD249D0DF19408FFF7C9BA91
:10373000089AEE0652F8041B08924FF001035ED47B
:10374000680659D51FFA81FA4FF0000BFFF7CFBB7F
:10375000C0770008D0770008029BDA0600F13681B6
:10376000029B5B0640F1B082089B53F8042B089340
:103770001FFA82FA4FF0000B7EE4029BD8077FF518
:10378000B3AAF3E4DBF85800FDF75AFDBBF90C20AF
:1037900093B2FFF722B934780893FFF76CB9239BF3
:1037A000C649C8F80010013301350121072BCDE9C6
:1037B0002335C8F8041000F39B8408F10808002A98
:1037C0007FF4A0AD029B0C9A03F0010313433FF476
:1037D0008BAA239B119AC8F80020109AC8F80420DD
:1037E00001331544072B2495239300F36B8308F1D1
:1037F00008089AE54EAF1AE4AA0500F1AF828A469E
:103800004FF0000BFFF773BB089B53F8041B0893A2
:10381000049BDD171A462B46C1E90023FFF781BA46
:10382000DDE90E0102460B46FDF7B2FA0546002817
:1038300040F03086612C00F0A485412C00F0A2827B
:10384000039B24F020065A1C069600F0C085472EE4
:1038500000F09C85DDE90E01029A002942F4807295
:103860000A924FF00003C0F2E58541EC180B179364
:103870000793462E00F0A084452E40F07184B0EEF0
:10388000480AF0EE680A039B20A95D1C1DABCDE938
:1038900000312A461CAB0221484600F0A1FF074632
:1038A00005440A9BDDF808B0029351EC180B002286
:1038B0000023FDF73BFA002800F056832B46DB1B64
:1038C0000C93069B472B00F02183069B462B00F0B0
:1038D000A1841C9B0B930B9B069A013B412A1C93D2
:1038E00000F0A285E2B20021002BB8BF0B9B8DF83F
:1038F0007820BABFC3F101032D222B22092B8DF8AA
:10390000792040F382850DF1870EDFF8B8C1754646
:103910008CFB0321DA17C2EBA10202EB8201A3EBBD
:1039200041011E463031632E284605F8011C13461E
:1039300005F1FF35ECDC3033DAB2831E9E452946B3
:1039400005F8012C40F2F9850DF17A0301E011F838
:10395000012B03F8012B8E45F9D10DF189030DF1EF
:103960007A021B1A13441EAA9B1A14930C9B149AD6
:10397000012B1A44069240F3AF85069B109A13441C
:10398000069300232BF480660A930D930B93069BFA
:1039900046F48072029223EAE37A179B002B40F0F0
:1039A000DC829DF86B200393FFF710BA029B590647
:1039B00040F19981089B53F8042B08930FFA82FA7F
:1039C0004FEAEA7B52465B46FFF753BA089B53F82F
:1039D000042B089392464FF0000BFFF74DBBBBF151
:1039E000000F08BFBAF10A0F029DFFF40AAD05F4FB
:1039F000806600230295CDF81880139DA0464EAF37
:103A000034461E4609E0FDF701FABBF1000F08BF7E
:103A1000BAF10A0F1FD382468B460A220023504672
:103A20005946FDF7F3F994460CF1300C07F801CC38
:103A3000504659460A2200230136013F002CE2D0AD
:103A400095F800C06645DED1FF2EDCD09B4508BF4F
:103A5000924580F095824EABDB1B44461395DDF812
:103A600018800C960693FFF7E2BA154B099612934D
:103A7000029B9F0666D5089B073323F00703F3E8F4
:103A800002AB0893029AD0070AD55AEA0B0307D073
:103A9000302342F002028DF86D4002928DF86C30B6
:103AA000029B23F480650223FFF721BA029D099649
:103AB000FFF712BA0996FFF7D4BA00BFBC77000827
:103AC0008C77000867666666AB4B09961293CFE762
:103AD00019EE101A22AA484603F020F800287FF4B5
:103AE0000EAC249D0DF19408FFF7E5B819EE101AFD
:103AF00022AA484603F012F800287FF400AC249D67
:103B00000DF19408FFF742BB43F4007374780293FD
:103B10000136FEF7B0BF43F02003747802930136FC
:103B2000FEF7A9BF039B0A97062B28BF062303971E
:103B30000D970B9707973A469A46904F089506932C
:103B4000FFF744B9029BDE063ED5089B53F8042BD1
:103B5000089392464FF0000B94E719EE101A22AA30
:103B6000484602F0DBFF00287FF4C9ABDDE92345BE
:103B70000DF1940802E419EE101A22AA484602F048
:103B8000CDFF00287FF4BBABDDE923450DF19408A0
:103B900001E4DBF85800FDF755FBBBF80C3068E595
:103BA00019EE101A22AA4846179302F0B7FF002810
:103BB0007FF4A5AB9DF86B20249D179B0DF1940815
:103BC000FFF756B8A34645E5029B5D066ED5089BF8
:103BD00053F8042B08931FFA82FA4FF0000B51E7B9
:103BE00019EE101A22AA484602F098FF00287FF426
:103BF00086AB249D0DF19408FFF7B3BABB4629E5C7
:103C0000BB4601332544072BC8F800B0CDE9233566
:103C1000C8F804407FF766A8FFF791BB012B029D0F
:103C20007FF4EDA9FFF7EDBB089B049953F8042B33
:103C300011600893FFF775B8102C239BDFF840B193
:103C400064DD2A4610265D4619EE10BA04E008F13C
:103C50000808103C102C57DD01331032072BCDE93A
:103C60002332C8E90056F2DD22AA5946484602F03E
:103C700055FF00287FF4EEACDDE923320DF1940806
:103C8000E7E73846FCF77CFD33460396024606908C
:103C9000FFF7D6B8DDF80CA001343544072CCDE988
:103CA0002345C8E900B67FF78DABFBE4029B13F414
:103CB000007F089B53F8042B089314BF5FFA82FA25
:103CC00092464FF0000BDDE6029B13F4007F089B49
:103CD00053F8042B089314BF5FFA82FA92464FF010
:103CE000000BFFF7C9B9029B13F4007F089B53F840
:103CF000042B3FF468A94FFA82FA4FEAEA7B089353
:103D000052465B46FFF7B5B8AB461546013325442E
:103D1000072BCDE92335C8F800B0C8F8044000F3FC
:103D2000E78008F1080832E419EE101A484622AA82
:103D300002F0F4FE00283EF4FFAF90E4029B3478DA
:103D400043F480630293FEF796BE0C9ABC18A4EB72
:103D50000B04D31A9C42A8BF1C464FE45FFA81FAB9
:103D60004FF0000BFFF7C3B8089B049953F8042BDE
:103D700008931180FEF7D5BFA0770008B47700083C
:103D8000D077000830238DF86C3058238DF86D30D3
:103D9000029B43F00205039B632B00F3CC820023BC
:103DA000079335AFDDE90E01029A029542F4817264
:103DB00024F0200600290A920696C0F2AC81002366
:103DC00041EC180B1793612C00F00583412C7FF414
:103DD00050ADB0EE480AF0EE680A1CA802F0A0FD53
:103DE00000224FF07F5351EC100BFCF737FD0022FF
:103DF000002382468B46FCF799FF08B101231C93F0
:103E0000B74B0B93039B19973E4609EE909A0B9F75
:103E100018945D1ECDF8348003E0FCF787FF013D68
:103E200008BBB04B002250465946FCF717FD8946A7
:103E30008046FCF7C3FF0446FCF734FB02460B4602
:103E400040464946FCF7E0F917F804C0B5F1FF3FDA
:103E5000B046824606F801CB8B464FF000024FF089
:103E60000003A946D9D1A04BCDF83080002250469E
:103E70005946DDF83480199F0D944D46189C19EE73
:103E8000909AFCF77BFF002840F05F82964B5046EB
:103E900059460022FCF74AFF18B10D9BD90700F1E3
:103EA0005482002D2B4606DB01333344302206F8C2
:103EB000012BB342FBD1F31B0C930A9BDDF808B036
:103EC0000293FEE419EE101A22AA484602F026FEDA
:103ED00000287FF414AADDE923351C9A0DF194081B
:103EE000FFF720BADBF85800FDF7ACF9FEF769BE22
:103EF00019EE101A22AA484602F010FE00287FF49C
:103F0000FEA9249D0DF19408FFF741BB1C9B0B9368
:103F1000DA1C02DB039A934204DD023C24F0200306
:103F20000693D8E4DDE90B318B42C0F289811BF0A6
:103F3000010F00F0BC82109A134406931BF4806FAB
:103F400003D00B9B002B00F37782069B672423EAA8
:103F5000E37A00230A930D931FE52D2200238DF8A9
:103F60006B200393FEF735BF209BAB42BFF4A7AC99
:103F700030215A1C20921970209B9D42F9D89EE452
:103F8000169B1599FF1A1A46384602F057FD6B78B2
:103F900003B101350A220023504659460026FCF79A
:103FA00035FF38E50C9BCDF818A05E46DDF834B03F
:103FB0000B97FB1803934246DDF858A0139F0A9B0A
:103FC00019EE108A2846BBF1000F2ED0002B6BD1C2
:103FD000013F0BF1FF3B239B1599116001335044C6
:103FE000072B2490C2F804A0239361DC08320399C4
:103FF0003B788C1B9C42A8BF1C46002C0ADD239BEF
:10400000166001332044072B24905460239358DC1E
:104010003B780832002CACBF1C1B1C46002C14DC67
:104020001E440A9BBBF1000FD0D1002B3CD113974B
:10403000DDE90B73FB189E42B346DDF818A09046ED
:10404000054628BF9B46FFF7A9BA102C23991EDD11
:1040500010250B4604E0103C102C02F1080215DD7F
:10406000013322491030072BCDE92330C2E9001576
:10407000F1DD22AA4146484602F050FD002846D113
:10408000103C102CDDE9233025AAE9DC1946174B3A
:1040900013604B1C2044072BCDE92330546053DCC4
:1040A0003B7808321E44BCE70A9B013B0A9392E727
:1040B00022AA4146484602F031FD40BB249825AA79
:1040C00095E722AA4146484602F028FDF8B93B7818
:1040D000249825AA9EE72D228DF86B20FEF763BE5B
:1040E000A0770008000030400000E03FD0770008D3
:1040F00019EE101A22AA484602F010FD00287FF49B
:10410000FEA81C9A249D0DF19408FFF758BBC346E6
:10411000FFF7A0BA0790DDE90E2303F1004308EE94
:10412000903A2D2308EE102A17934CE619EE101A38
:1041300022AA484602F0F2FC00287FF4E0A8249D61
:104140000DF19408FFF71BBA22AA4146484602F037
:10415000E5FC0028DBD13B78249825AA1E4460E7C3
:1041600020AA1DABCDE90032B0EE480AF0EE680A95
:10417000039A1CAB0221484600F032FB472E07464B
:1041800029D1029BDA0700F18E800A9A0292472217
:104190009B460692209BFFF792BB19EE101A22AAAB
:1041A000484602F0BBFC00287FF4A9A81C9B249D74
:1041B0000DF19408FFF70ABA20AA1DABCDE9003231
:1041C000B0EE480AF0EE680A039A1CAB0321484699
:1041D00000F006FB0746039B462E07EB03057FF422
:1041E00060AB3B78302B00F069811C9BDDF808B098
:1041F0001D440A9B0293FFF758BBDDF80CA09DF805
:104200006B20CDF818A0039008950A900D900B90A4
:10421000FEF7DCBD1C9A0B92002A40F36E810399D5
:104220000BF001030B4340F02E810B9B0693662499
:104230001BF4806F40F00181069B23EAE37A88E655
:104240000C9B109A9A180B9B0692002B40F34A8104
:104250006724EDE719EE101A22AA484602F05EFC28
:1042600000287FF44CA81C9B0C9A249DD31A0DF1B6
:104270009408FFF7C3B900230393FEF7FDBBD346B1
:10428000FFF7E8B9DBF86430D80707D4BBF80C3087
:10429000990503D4DBF85800FCF7D4FF4FF0FF3347
:1042A0000493FFF7E9B9DDE902B3FD180A9B029315
:1042B00047230693FFF7F9BA54421032DFF8ACB245
:1042C00021DA2A4610265D4619EE10BA04E008F1FC
:1042D0000808103C102C14DD01331032072BCDE9F7
:1042E0002332C8E90056F2DD22AA5946484602F0B8
:1042F00015FC00287FF4AEA9DDE923320DF1940806
:10430000E7E7AB46154601332544072BCDE92335B6
:10431000C8E900B47FF76BAA19EE101A22AA484622
:1043200002F0FCFB00287EF4EAAFDDE923350DF155
:104330009408FEF7FABF591C484601F0E7FC07460F
:10434000002800F0FE8007902CE50C9B20930B9B2F
:1043500016F8012CD97B8A42334609D1302003F864
:10436000010C209B5A1E209213F8012C9142F6D08A
:10437000392A0BBF0B9A0132927AD2B203F8012C80
:1043800099E530238DF86C307823FFE4002B1A4632
:1043900008BF01220F9B0392029A002B42F4807205
:1043A0000A92FFF6B7AEDDE90EAB20AA1DABCDE950
:1043B00000324BEC10AB039A07951CAB0221484628
:1043C00000F00EFA4BEC18AB07461795D9E606231A
:1043D0000393FFF73FBA1CA8B0EE480AF0EE680A54
:1043E00002F09EFA00224FF07F5351EC100BFCF7C5
:1043F00035FA0022002382468B46FCF797FC08B171
:1044000001231C93564B0B93FCE4002972D13022FC
:104410008DF87A200DF17B02303302F8013B1EABA0
:10442000D31A1493FFF7A2BA04F10F02D2B20121FA
:10443000FFF75ABA07936EE6672413990B78FF2BA0
:1044400000F0898000250B9A284603E001300131F5
:10445000FF2B08D0934206DAD21A4B78002BF5D105
:104460000B780135F4E713910B920D900A950A9A97
:104470000D9B06991344169A02FB0313069323EA35
:10448000E37AFFF78ABA109B02EB030A51440691C4
:104490006624CDE60F9B334F002BB4BF2D229DF831
:1044A0006B20314BB8BF8DF86B20FEF77EBC0B9BA9
:1044B000069343E519EE10BAFFF7D1B851EC180B8B
:1044C00000220023FCF732FC00287FF48EAE039B11
:1044D000C3F101031C9389E61BF0010F3FF451AABD
:1044E000FFF74BBAC3F101031A44069222EAE27ABB
:1044F00067242EE50DF17A028EE7039B0BF001068F
:1045000056EA030205D14FF0010ACDF818A066243F
:104510001FE5109A02F1010A5344069323EAE37A55
:10452000662416E5089B747853F8041B0893164616
:1045300041EAE1720392FEF79EBA02231493FFF759
:1045400015BA19EE10BABBF80C3043F04003ABF8C3
:104550000C30FFF784B800230A930D9387E700BF60
:104560008C7700088477000888770008D0770008E7
:10457000F0B50C468989656EB4F80EC0E769ADF2F6
:10458000744D21F002010646ADF814100020616A56
:104590001B950B911CAD4FF48061089018A8CDE9D4
:1045A0000032ADF816C0029506950491079109975F
:1045B000FCF742FEDDE9003202A93046FEF7E8F9D9
:1045C000051E07DB304602A901F018F9002818BFC4
:1045D0004FF0FF35BDF814305B0603D5A38943F0D7
:1045E0004003A3811898FCF729FE28460DF2744D6C
:1045F000F0BD00BF38B5324B1B6805460C4613B101
:104600009A6B002A3CD0B4F90C3018079AB20CD53A
:104610002169A9B112F0010022D060690025404251
:10462000A061A56011B3002038BDD10640D5520766
:104630002AD4216943F00803A3819AB20029E9D161
:1046400002F42070B0F5007FE4D02846214601F046
:1046500011FBB4F90C3021699AB212F00100DCD1DF
:10466000950758BF6069A0600029DCD1120658BFC9
:104670000846D9D543F04003A3814FF0FF3038BD41
:10468000184601F017F9BEE7216B51B104F1400261
:10469000914204D0284601F093F9B4F90C3000227D
:1046A0002263216921600022626023F02403C1E7B4
:1046B00043F0400309222A604FF0FF30A38138BD48
:1046C000000000202DE9F04F03690E69B34283B06A
:1046D000C0F28280013E01F1140700F1140A57F87C
:1046E00026305AF8262001338346B00000909A42C3
:1046F0000AEB860007EB86090190B2FBF3F836D38C
:1047000000252A46BC4650465CF8044B03681FFA55
:1047100084FE08FB0E554FEA154E240C08FB04E4FA
:10472000ADB2551BA2B2C2EB134215FA83F302EBF2
:1047300023429BB243EA0243E14540F8043B4FEA7F
:1047400014454FEA2242DFD2009B5AF8033073B976
:10475000019B043B9A4504D307E09A4506F1FF36D6
:1047600003D253F80429002AF7D0CBF8106058463A
:1047700001F0BEFF00282BDB08F1010850460023A2
:1047800057F8041B04688AB29A1A0B0C12FA84F2C6
:10479000C3EB144303EB224392B242EA0342B9450E
:1047A00040F8042B4FEA2343EAD25AF826200AEBBA
:1047B00086036AB9043B9A4504D307E09A4506F19B
:1047C000FF3603D253F80429002AF7D0CBF8106043
:1047D000404603B0BDE8F08F002003B0BDE8F08F85
:1047E0002DE9F04F2DED048B57EC106B99B0056C53
:1047F0000691CDE9046704460C9209934DB1426CD1
:104800006A6001239340AB60294601F06BFD0023F1
:104810002364B7F10009269AB4BF01230023136073
:10482000774BBCBF29F00049CDF8149033EA090357
:1048300000F0AB809DED047B002251EC170B0023B0
:104840008DED027BFCF772FA804680B1099A012354
:104850001360279B002B00F0D8826A481860431E23
:104860000193019819B0BDEC048BBDE8F08F9DED6C
:10487000020B16AA17A9204601F0F4FF5FEA1955AA
:10488000824640F09A80DDE91685454405F23240C3
:10489000202840F3AE83C0F1400305F2124009FA2C
:1048A00003F926FA00F049EA0000FBF7EBFD0123CB
:1048B000013DA1F1F8711093534B0022FBF7A4FCCA
:1048C00049A3D3E90023FBF7C9FF49A3D3E9002398
:1048D000FBF79CFC064628460F46FBF7E3FD46A384
:1048E000D3E90023FBF7BAFF02460B4630463946B0
:1048F000FBF78CFC06460F46FCF760FA0022834665
:10490000002330463946FCF71BFA002840F070823D
:10491000BBF1160F00F25E823C4B03EBCB03D3E9F5
:104920000023DDE90201FCF70BFA002874D0002314
:10493000A8EB05050F936B1E0BF1FF3B079300F1EE
:10494000518200230A93BBF1000F6DDA0A9BCDF868
:1049500020B0A3EB0B030A93CBF100030E93069B4D
:10496000092B4FF0000B68D8052B40F34083043B24
:1049700006930025069B023B032B00F28C86DFE8A2
:1049800013F05B04580450043304099A42F20F7385
:10499000C9F31309136059EA06031ED1279B002BA4
:1049A00000F070861A4B01930833279A0198136020
:1049B00019B0BDEC048BBDE8F08FDDE90212C2F343
:1049C0001303084643F07F51CDF84080A5F2FF3530
:1049D000DDF8588041F440116EE7279B002B40F032
:1049E000F2830C4B01933CE761436F63A787D23F8F
:1049F000B3C8608B288AC63FFB799F501344D33FCE
:104A00000000F07FBD7700080000F83F187800082C
:104A1000E4770008E0770008A8EB05056B1E079314
:104A200000F1BF840F900A90079B5B44CDE9073BE0
:104A300000230E93069B092B96D900230125CDE96F
:104A40000C354FF0FF3606930B96002161641196EA
:104A5000204601F021FC0E2E0190206400F2F78028
:104A6000002D00F0F4800899002940F36484C04BC5
:104A700001F00F0203EBC203CA05D3E900674FEA56
:104A8000211540F1FA83BB4BDDE90201D3E908238C
:104A9000FCF70EF841EC180B05F00F054FF0030979
:104AA0008DB1DFF8D082EB073046394607D5D8E91B
:104AB0000023FBF7D3FE09F1010906460F466D10EE
:104AC00008F10808EFD13B4651EC180B3246FBF7D2
:104AD000EFFF074688460F9B43B1A74B002238469D
:104AE0004146FCF72DF9002840F053854846FBF776
:104AF000D9FC3A464346FBF7B1FEA04B0022FBF738
:104B000085FBA1F15073CDE9120113930B9B002B90
:104B100000F0F283089B15930B9B14930D9B002BC5
:104B200000F0C684149A924B954903EBC20353E9F3
:104B300002230020FBF7BCFFDDE91223FBF764FB37
:104B400002460B463846414643EC182BFCF736F933
:104B50000546FBF7A7FC02460B4638464146FBF7E5
:104B600053FBDDF80490303506460F4602460B46EF
:104B700009F8015B51EC180BFCF700F9002840F034
:104B80004C854FF0000809EE10AA09EE904ACDF8C6
:104B900048B04C46C346DDF850A059EC188B24E0D1
:104BA000D3454EDAFBF75AFE764B00228046894603
:104BB00030463946FBF752FE0F460646FCF7FEF834
:104BC0000546FBF76FFC02460B4630463946FBF7BD
:104BD0001BFB303504F8015B42464B4606460F4648
:104BE000FCF7AEF8002840F0138532463B46624998
:104BF0000020FBF709FB42464B46FCF7A1F80546AF
:104C0000604B0BF1010B002240464946002DC7D0F6
:104C1000159B0893A14619EE10AA19EE904A019B24
:104C200002E0994500F0E3844E4619F8012D392A37
:104C3000F7D00132D2B2089B89F8002001330893E3
:104C4000B7E1DDF848B019EE10AA19EE904A179BAB
:104C5000002BC0F29B80089A0E2A00F39780444BE9
:104C600003EBC20393ED007B0C9BB0EE478AF0EEA2
:104C7000678A002B1BDA0B9B002B18DC40F0578354
:104C800051EC170B404B0022FBF7E8FD02460B46A8
:104C9000DDE90201FCF75EF8DDF82C8045460028CE
:104CA00000F059820C9B019F6FEA03095CE2DDE989
:104CB000026753EC182B30463946FBF7F9FEFCF738
:104CC0007DF80546FBF7EEFB53EC182BFBF7C6FD12
:104CD0000B46024639463046FBF796FADDF804905B
:104CE00005F1300309F8013B0B9B012B00F0938386
:104CF00009EE10AACB4609EE904A5AEC189B4FF0E9
:104D000001081D4617E0FBF7D3FEFCF757F80446F1
:104D1000FBF7C8FB4A465346FBF7A0FD0B4602468D
:104D200039463046FBF770FA04F13003A8450BF81A
:104D3000013B00F06A83134B0022FBF78FFD00223A
:104D4000002306460F46FBF7F1FF044608F1010871
:104D50004A46534630463946002CD4D019EE10AAA4
:104D600019EE904AD946089B013308934E4620E13C
:104D700018780008F07700080000F03F00001C40A1
:104D80000000E03F00002440000014400D9A002A7B
:104D900043D0069A012A40F390820B9B5F1E0E9B24
:104DA000BB4280F268820E9B0E97FB1A9B44002741
:104DB0000B9B002BC0F25D83079A11460A9A194497
:104DC00016461A4407910A920121204601F02AFB57
:104DD000054625E00123A8EB05050F936B1E0793FD
:104DE0007FF5AFADC5F101030A9300230793AAE550
:104DF0005846FBF757FB32463B46FBF797FF002828
:104E00007FF486AD0BF1FF3B82E5C74B0193019820
:104E100019B0BDEC048BBDE8F08F0E9F0A9E0D9D6E
:104E2000002E0CDD079A002A09DD0A99B2421346CA
:104E3000A8BF3346C91AF61AD31A0A9107930E9BD4
:104E4000D3B10D9B002B00F0B781002F10DD294658
:104E50003A46204601F092FB52460146054620465E
:104E600001F0EAFA51468046204601F03BFAC2467C
:104E70000E9BDA1B40F0A1810121204601F0D2FAFD
:104E8000BBF1000F804600F3B980069B012B40F375
:104E90009F8100270120BBF1000F40F0BA80079AE4
:104EA000104410F01F0000F09980C0F12003042B83
:104EB00040F3EC830A9BC0F11C00034402440A93B4
:104EC000064407920A9B002B05DD51461A462046F0
:104ED00001F0A4FB8246079B002B05DD41461A46E4
:104EE000204601F09BFB80460F9B002B40F0498140
:104EF0000B9B002B40F31A810D9B002B40F09B80F5
:104F0000089B01330893019FDDF82C90012603E0F4
:104F100001F0F2F90136824641465046FFF7D2FBD6
:104F20004E4500F1300C07F801CB51464FF000031D
:104F30004FF00A022046EBDB0B9BCDF808C0002B9C
:104F4000C8BF9B46019BD8BF4FF0010B9B444FF05D
:104F5000000951460122204601F060FB414682468D
:104F600001F0C6FB002840F396811BF8012C019B41
:104F70000BF1FF3B04E05B4500F098811BF8012D2D
:104F8000392A0BF10106F6D001328BF80020414698
:104F9000204601F0A7F965B1B9F1000F05D0A94588
:104FA00003D04946204601F09DF92946204601F0EC
:104FB00099F95146204601F095F9099B002232707B
:104FC0001A46089B1360279B002B3FF44AAC0198BC
:104FD0001E6019B0BDEC048BBDE8F08F1C200A9B4D
:104FE00003440A93079B0344064407936AE7012599
:104FF000C0E4C0F1200006FA00F056E401465A462B
:10500000204601F0BBFA069B012B804640F3CB8182
:105010000027D8F8103008EB8303186901F0B2F9C3
:10502000C0F120003BE7069B022B00F32283119B7B
:10503000CDF820900B93089B01330893002E00F3CA
:105040001381002F40F001822F46049B0699019E98
:1050500003F001020D920A430C920B9A731E1A443C
:105060000A9241465046FFF72DFB2946834650469B
:1050700001F03EFB414681463A46204601F056FB90
:105080000BF130030293C3680146002B41D1079016
:10509000504601F02DFB07990490204601F022F9BB
:1050A000049B1BB90C9A002A00F0C882B9F1000FCA
:1050B000C0F29081069A42EA09090D9A52EA090261
:1050C00000F08881002B00F3D881029B33700A9B8B
:1050D00006F10109B342CB4600F0DA8151460023C4
:1050E0000A22204601F008F9BD42824629464FF0C7
:1050F00000034FF00A02204610D001F0FDF83946B7
:10510000054600230A22204601F0F6F84E460746DF
:10511000A7E7204601F0E6F80123C7E701F0ECF825
:105120004E46054607469CE7BC770008069B022BC7
:1051300040F385800B9B002B7FF4B4AD41460522E4
:10514000204601F0D9F801468046504601F0D0FAD9
:1051500000287FF7A7AD019F3B46312203F8012BC2
:10516000089A019302F101094146204601F0BAF87C
:1051700009F10103019E08930197002D7FF415AFFB
:1051800017E74146504601F0B3FA0028BFF6B0AE2B
:10519000514600230A22204601F0AEF8089B03F195
:1051A000FF390D9B8246002B40F05082119B002B53
:1051B00040F359820B93A6E60E9A5146204601F021
:1051C000DDF9824658E6B44B01930333FFF7EDBB9C
:1051D000DDE9041200297FF45CAEC2F31303002B57
:1051E00000F0EB80049F55E601230D930C9B089A79
:1051F000134411930133012B1E460B93B8BF0126B4
:105200000021172E61640ADD012204235B0003F1F3
:105210001400B042114602F10102F7D961640B9EFD
:1052200016E401230D930C9E002E2FDD11960B9694
:10523000E6E700230D93D9E700230D93F3E70D9BD9
:10524000002B7FF4F8AE41465046FFF73BFA089A30
:10525000DDF804B000F1300301320BF8013B02939A
:1052600008924FF0000974E629463246204601F0C4
:10527000D5F90546E5E6DF1B9AE59DED027B4FF08B
:105280000209B0EE478AF0EE678A09E40126CDE90B
:105290000B66FFF7DABB03D1029BDB073FF565AE78
:1052A0005E461BF8013D302BFAD070E6089B0133B7
:1052B0000893019B31221A7069E6109A002A00F0C7
:1052C000648103F23343079A0E9F1A4407920A9AA5
:1052D00016461A440A9277E54846FBF7E3F83A4641
:1052E0004346FBF7BBFA6D4B0022FAF78FFFA1F1A3
:1052F0005073CDE912011393694B384641460022A1
:10530000FAF782FFDDE9128942464B4606460F4610
:10531000FBF734FD002840F07781424609F1004355
:1053200030463946FBF70CFD00283FF490AC4FF0B7
:1053300000084546B6E400F05481089B5D42594B95
:1053400005F00F0203EBC203D3E90023DDE90201FC
:10535000FBF784FA2D110746884600F08F81524EE4
:1053600002460B464FF0000C4FF0020915F0010FFA
:105370001046194609D0D6E90023FBF76FFA09F168
:10538000010902460B464FF0010C6D1006F10806AC
:10539000ECD1BCF1000F3FF49EAB17469846FFF7E7
:1053A0009ABB0F901EE5DDE9041200297FF430AEB0
:1053B000C2F31303002B7FF42BAE3C4F1740002F9A
:1053C0003FF468AD0A9B01330A93079B01330793AF
:1053D00001275FE5002B12DD51460122204601F036
:1053E0001DF94146824601F083F9002840F31F81F0
:1053F000029B392B00F001810BF131030293029BD8
:1054000006F8013BA9463D46C1E5254619EE10AA1E
:1054100019EE904AD94602460B46FAF7F7FE53ECCE
:10542000182B06460F46FBF7A9FC58B953EC182B6E
:1054300030463946FBF77AFC00283FF494ACE90784
:105440007FF591AC019BFFF7EFBB6968204600F048
:1054500023FF2B6902339A00064605F10C010C303C
:10546000FBF7DEF831460122204601F0D7F8074667
:10547000EBE5DDE90A329E1AA6E4029B392B00F027
:10548000BC80029B0133A94606F8013B3D467EE500
:10549000A9463D465DE500BFE077000800001C40DE
:1054A0000000144018780008F07700080000F07F32
:1054B000149B814901EBC30151E90201DDE912238B
:1054C000FBF7CCF902460B463846414643EC182B15
:1054D000FBF774FC0546FAF7E5FF0B46024641462A
:1054E0003846FAF791FE149BDDF804903035012B15
:1054F00009F8015B06460F4623D0149B019ACDF8AC
:1055000048B013449B464D466C4B0022304639460A
:10551000FBF7A4F989468046FBF750FC0746FAF7EB
:10552000C1FF303702460B4640464946FAF76CFE4B
:1055300005F8017B5D4506460F46E5D1DDF848B02C
:10554000A9465F4B002251EC180BFAF75FFE32467A
:105550003B46FBF7F5FB002864D153EC182B584968
:105560000020FAF751FE32463B46FBF707FC0028C5
:105570003FF46DAB4E4609F1FF3916F8013C302B74
:10558000F8D0159B0133089313E5169BC3F136033E
:1055900099E60B9B002B3FF49FAE119D002D7FF7EA
:1055A00056AB464B384641460022FBF757F90246B8
:1055B0001746884609F10100FAF774FF3A46434658
:1055C000FBF74CF93F4B0022FAF720FEA1F1507394
:1055D000CDE912011393089B013BCDE91453FFF76A
:1055E0009DBADDE902784FF00209FFF774BA089B13
:1055F000013308933122FFF71EBBB3463922A94677
:105600000BF8012B3D46B2E44FF000084546A2E5F9
:10561000A14619EE10AA19EE904A159B0133089382
:105620004E46C6E4159B0893019BFFF7FDBA7FF435
:10563000E6AE029BDA077FF5E2AED9E6029B392B94
:10564000DBD0B9F1000F3FF7D7AED8E629460023EB
:105650000A22204600F050FE119B002B05467FF7E2
:10566000E2AC0B93EAE4069B022B02DCCDF820901F
:10567000E9E5119BCDF820900B935BE54FF0020913
:10568000FFF729BA104B0193FFF7EBB83FF41AACC0
:10569000C0F13C00A3E4002565642946204600F0E3
:1056A000FBFD4FF0FF3311930B93012301900C95F9
:1056B00020640D93FFF7CBBA18780008000024404F
:1056C0000000E03F00001C40E4770008B1F90C2026
:1056D0002DE9F0410D461107804647D46B6842F42E
:1056E0000062002BAA815DDDAC6A002C57D000233C
:1056F000D8F80060C8F8003093B212F4805255D147
:105700000123E9694046A047431C66D0AB89AC6AD7
:105710005F0705D56A682B6B801A0BB1EB6BC01A5B
:10572000E969024600234046A047411C40D1D8F811
:105730000030002B3CD01D2B01D0162B55D1AB894E
:105740002A692A6023F400630022AB816A60296B16
:10575000C8F8006019B305F14003994202D04046F1
:1057600000F02EF900202863BDE8F0812F69B7B161
:1057700093B22E682F609A070CBF6B690023F61B4B
:10578000AB600AE06C6AE96933463A464046A04796
:10579000041EA6EB0406274417DD002EF2DC0020D1
:1057A000BDE8F081EB6B002B9EDCF8E7286DAFE7DE
:1057B000B5F90C302A692A6023F400630022AB811A
:1057C000DB046A60C3D52865C1E7AB8943F04003B9
:1057D000AB814FF0FF30BDE8F081D8F80030002BEE
:1057E00094D01D2B06D0162B04D0AB8943F0400378
:1057F000AB81D5E7C8F80060D1E700BF38B50C46EB
:10580000054608B1836BA3B1B4F90C00B8B1636E5F
:10581000DB0701D4810515D528462146FFF756FF41
:10582000636EDA07054602D4A3899B050ED5284688
:1058300038BD00F03FF8B4F90C000028E7D1054668
:10584000284638BDA06DFBF7FBFCE5E7A06DFBF734
:10585000F9FC284638BD00BF10B500230446C0E956
:105860000033C0E904338181C28183604366836170
:10587000194608225C30FBF769FC07480749084ACB
:10588000084BE362C4E90740C4E9091204F1580077
:10589000BDE81040FBF7D0BCB1690008D56900082D
:1058A000156A0008356A0008014900F08DB900BF8B
:1058B000E56B000810B504461148FBF7C1FCA26B6C
:1058C000C2B904F53B730F48C4F8E0220321C4E9D0
:1058D000B913E06304216068FFF7BEFFA0680122EE
:1058E0000921FFF7B9FFE06802221221FFF7B4FF98
:1058F0000123A363BDE810400148FBF7A3BC00BF30
:10590000300B0020A95800080148FBF799BC00BFE4
:10591000440B00200148FBF795BC00BF440B00205E
:10592000F8B5244F0C46064600F0AAFCBB685D683B
:10593000C4F57E610F3125F003054B1923F47F6315
:1059400023F00F03A3F58054B4F5805F07DB00213B
:10595000304601F01BF8BB682B44984204D0304617
:1059600000F094FC0020F8BD6142304601F00EF8D2
:1059700001300DD0104AB96813682D1B45F00105A0
:1059800030461B1B4D60136000F080FC0120F8BD09
:105990000021304600F0FAFFBA68831A0F2BDEDDD3
:1059A000064C0549246843F00103001B536008605E
:1059B000D5E700BF4C040020F00A00205408002066
:1059C00000295ED0F8B50C46064600F059FC54F8A4
:1059D000043CDFF8F0C123F00101A4F108004218F3
:1059E000DCF808705568974225F0030500F08880C0
:1059F000DF07556033D454F8087CC01B0CF1080451
:105A00008368A342394469D05719D0F80CE07F6805
:105A1000C3F80CE0CEF80830FB0740F1968041F067
:105A2000010343601160B1F5007F33D2CB08DCF88D
:105A3000044001334A090121914021430CEBC30288
:105A40005CF83340CCF80410083AC0E902424CF844
:105A50003300E0603046BDE8F84000F017BC531951
:105A60005B68DF070ED429440CF108049368A34255
:105A700073D0D468DC6041F00102A3604260415001
:105A8000D1E7704741F00103B1F5007F44F8043CD1
:105A90001160CBD3B1F5206F4FEA51234AD28B0965
:105AA00003F13905ED0003F138025CF805300CEB29
:105AB0000504083C9C4259D05A6822F003028A42ED
:105AC00002D99B689C42F7D1DC68C0E90234A0602F
:105AD000D8603046BDE8F84000F0D8BB53195B6889
:105AE000DB0766D4D2E90223294441F00104D360E4
